{
  "_format": "hh-sol-artifact-1",
  "contractName": "AuditTrail",
  "sourceName": "contracts/AuditTrail.sol",
  "abi": [
    {
      "inputs": [],
      "stateMutability": "nonpayable",
      "type": "constructor"
    },
    {
      "inputs": [],
      "name": "AccessControlBadConfirmation",
      "type": "error"
    },
    {
      "inputs": [
        {
          "internalType": "address",
          "name": "account",
          "type": "address"
        },
        {
          "internalType": "bytes32",
          "name": "neededRole",
          "type": "bytes32"
        }
      ],
      "name": "AccessControlUnauthorizedAccount",
      "type": "error"
    },
    {
      "inputs": [
        {
          "internalType": "address",
          "name": "owner",
          "type": "address"
        }
      ],
      "name": "OwnableInvalidOwner",
      "type": "error"
    },
    {
      "inputs": [
        {
          "internalType": "address",
          "name": "account",
          "type": "address"
        }
      ],
      "name": "OwnableUnauthorizedAccount",
      "type": "error"
    },
    {
      "anonymous": false,
      "inputs": [
        {
          "indexed": false,
          "internalType": "string",
          "name": "userNameEncrypted",
          "type": "string"
        },
        {
          "indexed": false,
          "internalType": "string",
          "name": "documentHash",
          "type": "string"
        },
        {
          "indexed": false,
          "internalType": "uint256",
          "name": "timeStamp",
          "type": "uint256"
        },
        {
          "indexed": false,
          "internalType": "enum AuditTrail.SignatureType",
          "name": "sigType",
          "type": "uint8"
        }
      ],
      "name": "AuditLogCreated",
      "type": "event"
    },
    {
      "anonymous": false,
      "inputs": [
        {
          "indexed": true,
          "internalType": "address",
          "name": "previousOwner",
          "type": "address"
        },
        {
          "indexed": true,
          "internalType": "address",
          "name": "newOwner",
          "type": "address"
        }
      ],
      "name": "OwnershipTransferred",
      "type": "event"
    },
    {
      "anonymous": false,
      "inputs": [
        {
          "indexed": true,
          "internalType": "bytes32",
          "name": "role",
          "type": "bytes32"
        },
        {
          "indexed": true,
          "internalType": "bytes32",
          "name": "previousAdminRole",
          "type": "bytes32"
        },
        {
          "indexed": true,
          "internalType": "bytes32",
          "name": "newAdminRole",
          "type": "bytes32"
        }
      ],
      "name": "RoleAdminChanged",
      "type": "event"
    },
    {
      "anonymous": false,
      "inputs": [
        {
          "indexed": true,
          "internalType": "bytes32",
          "name": "role",
          "type": "bytes32"
        },
        {
          "indexed": true,
          "internalType": "address",
          "name": "account",
          "type": "address"
        },
        {
          "indexed": true,
          "internalType": "address",
          "name": "sender",
          "type": "address"
        }
      ],
      "name": "RoleGranted",
      "type": "event"
    },
    {
      "anonymous": false,
      "inputs": [
        {
          "indexed": true,
          "internalType": "bytes32",
          "name": "role",
          "type": "bytes32"
        },
        {
          "indexed": true,
          "internalType": "address",
          "name": "account",
          "type": "address"
        },
        {
          "indexed": true,
          "internalType": "address",
          "name": "sender",
          "type": "address"
        }
      ],
      "name": "RoleRevoked",
      "type": "event"
    },
    {
      "inputs": [],
      "name": "CUSTOMER_NAME",
      "outputs": [
        {
          "internalType": "string",
          "name": "",
          "type": "string"
        }
      ],
      "stateMutability": "view",
      "type": "function"
    },
    {
      "inputs": [],
      "name": "DEFAULT_ADMIN_ROLE",
      "outputs": [
        {
          "internalType": "bytes32",
          "name": "",
          "type": "bytes32"
        }
      ],
      "stateMutability": "view",
      "type": "function"
    },
    {
      "inputs": [
        {
          "internalType": "uint256",
          "name": "",
          "type": "uint256"
        }
      ],
      "name": "IdToAuditLog",
      "outputs": [
        {
          "internalType": "string",
          "name": "userNameEncrypted",
          "type": "string"
        },
        {
          "internalType": "string",
          "name": "documentHash",
          "type": "string"
        },
        {
          "internalType": "uint64",
          "name": "timeStamp",
          "type": "uint64"
        },
        {
          "internalType": "enum AuditTrail.SignatureType",
          "name": "sigType",
          "type": "uint8"
        }
      ],
      "stateMutability": "view",
      "type": "function"
    },
    {
      "inputs": [
        {
          "internalType": "string",
          "name": "_userNameEncrypted",
          "type": "string"
        },
        {
          "internalType": "string",
          "name": "_documentHash",
          "type": "string"
        },
        {
          "internalType": "uint64",
          "name": "_timeStamp",
          "type": "uint64"
        },
        {
          "internalType": "enum AuditTrail.SignatureType",
          "name": "_sigType",
          "type": "uint8"
        }
      ],
      "name": "createAuditLog",
      "outputs": [],
      "stateMutability": "nonpayable",
      "type": "function"
    },
    {
      "inputs": [
        {
          "internalType": "uint256",
          "name": "_Id",
          "type": "uint256"
        }
      ],
      "name": "getAuditLogById",
      "outputs": [
        {
          "components": [
            {
              "internalType": "string",
              "name": "userNameEncrypted",
              "type": "string"
            },
            {
              "internalType": "string",
              "name": "documentHash",
              "type": "string"
            },
            {
              "internalType": "uint64",
              "name": "timeStamp",
              "type": "uint64"
            },
            {
              "internalType": "enum AuditTrail.SignatureType",
              "name": "sigType",
              "type": "uint8"
            }
          ],
          "internalType": "struct AuditTrail.AuditLog",
          "name": "",
          "type": "tuple"
        }
      ],
      "stateMutability": "view",
      "type": "function"
    },
    {
      "inputs": [],
      "name": "getAuditLogs",
      "outputs": [
        {
          "components": [
            {
              "internalType": "string",
              "name": "userNameEncrypted",
              "type": "string"
            },
            {
              "internalType": "string",
              "name": "documentHash",
              "type": "string"
            },
            {
              "internalType": "uint64",
              "name": "timeStamp",
              "type": "uint64"
            },
            {
              "internalType": "enum AuditTrail.SignatureType",
              "name": "sigType",
              "type": "uint8"
            }
          ],
          "internalType": "struct AuditTrail.AuditLog[]",
          "name": "",
          "type": "tuple[]"
        }
      ],
      "stateMutability": "view",
      "type": "function"
    },
    {
      "inputs": [],
      "name": "getCustomerName",
      "outputs": [
        {
          "internalType": "string",
          "name": "",
          "type": "string"
        }
      ],
      "stateMutability": "pure",
      "type": "function"
    },
    {
      "inputs": [
        {
          "internalType": "bytes32",
          "name": "role",
          "type": "bytes32"
        }
      ],
      "name": "getRoleAdmin",
      "outputs": [
        {
          "internalType": "bytes32",
          "name": "",
          "type": "bytes32"
        }
      ],
      "stateMutability": "view",
      "type": "function"
    },
    {
      "inputs": [
        {
          "internalType": "bytes32",
          "name": "role",
          "type": "bytes32"
        },
        {
          "internalType": "address",
          "name": "account",
          "type": "address"
        }
      ],
      "name": "grantRole",
      "outputs": [],
      "stateMutability": "nonpayable",
      "type": "function"
    },
    {
      "inputs": [
        {
          "internalType": "bytes32",
          "name": "role",
          "type": "bytes32"
        },
        {
          "internalType": "address",
          "name": "account",
          "type": "address"
        }
      ],
      "name": "hasRole",
      "outputs": [
        {
          "internalType": "bool",
          "name": "",
          "type": "bool"
        }
      ],
      "stateMutability": "view",
      "type": "function"
    },
    {
      "inputs": [],
      "name": "logCount",
      "outputs": [
        {
          "internalType": "uint256",
          "name": "",
          "type": "uint256"
        }
      ],
      "stateMutability": "view",
      "type": "function"
    },
    {
      "inputs": [],
      "name": "owner",
      "outputs": [
        {
          "internalType": "address",
          "name": "",
          "type": "address"
        }
      ],
      "stateMutability": "view",
      "type": "function"
    },
    {
      "inputs": [],
      "name": "renounceOwnership",
      "outputs": [],
      "stateMutability": "nonpayable",
      "type": "function"
    },
    {
      "inputs": [
        {
          "internalType": "bytes32",
          "name": "role",
          "type": "bytes32"
        },
        {
          "internalType": "address",
          "name": "callerConfirmation",
          "type": "address"
        }
      ],
      "name": "renounceRole",
      "outputs": [],
      "stateMutability": "nonpayable",
      "type": "function"
    },
    {
      "inputs": [
        {
          "internalType": "bytes32",
          "name": "role",
          "type": "bytes32"
        },
        {
          "internalType": "address",
          "name": "account",
          "type": "address"
        }
      ],
      "name": "revokeRole",
      "outputs": [],
      "stateMutability": "nonpayable",
      "type": "function"
    },
    {
      "inputs": [
        {
          "internalType": "bytes4",
          "name": "interfaceId",
          "type": "bytes4"
        }
      ],
      "name": "supportsInterface",
      "outputs": [
        {
          "internalType": "bool",
          "name": "",
          "type": "bool"
        }
      ],
      "stateMutability": "view",
      "type": "function"
    },
    {
      "inputs": [
        {
          "internalType": "address",
          "name": "newOwner",
          "type": "address"
        }
      ],
      "name": "transferOwnership",
      "outputs": [],
      "stateMutability": "nonpayable",
      "type": "function"
    }
  ],
  "bytecode": "0x608060405234801561001057600080fd5b50338061003757604051631e4fbdf760e01b81526000600482015260240160405180910390fd5b61004081610052565b5061004c6000336100a4565b50610150565b600180546001600160a01b038381166001600160a01b0319831681179093556040519116919082907f8be0079c531659141344cd1fd0a4f28419497f9722a3daafe3b4186f6b6457e090600090a35050565b6000828152602081815260408083206001600160a01b038516845290915281205460ff16610146576000838152602081815260408083206001600160a01b03861684529091529020805460ff191660011790556100fe3390565b6001600160a01b0316826001600160a01b0316847f2f8788117e7eff1d82e926ec794901d17c78024a50270940304540a733656f0d60405160405180910390a450600161014a565b5060005b92915050565b61113c8061015f6000396000f3fe608060405234801561001057600080fd5b506004361061010b5760003560e01c80638da5cb5b116100a2578063a503898f11610071578063a503898f14610261578063c465f2f01461026a578063d547741f1461027f578063eb66d8df14610292578063f2fde38b146102be57600080fd5b80638da5cb5b1461020857806391d1485414610223578063a042bb7614610236578063a217fddf1461025957600080fd5b8063498c40ee116100de578063498c40ee1461019157806367ccaa55146101cd578063715018a6146101ed57806379b27ea3146101f557600080fd5b806301ffc9a714610110578063248a9ca3146101385780632f2ff15d1461016957806336568abe1461017e575b600080fd5b61012361011e366004610bed565b6102d1565b60405190151581526020015b60405180910390f35b61015b610146366004610c1e565b60009081526020819052604090206001015490565b60405190815260200161012f565b61017c610177366004610c53565b610308565b005b61017c61018c366004610c53565b610333565b6101c06040518060400160405280601081526020016f474c4155582047524f55502044454d4f60801b81525081565b60405161012f9190610cc5565b6101e06101db366004610c1e565b61036b565b60405161012f9190610d6f565b61017c6104fe565b61017c610203366004610e25565b610512565b6001546040516001600160a01b03909116815260200161012f565b610123610231366004610c53565b6105f5565b610249610244366004610c1e565b61061e565b60405161012f9493929190610eb8565b61015b600081565b61015b60035481565b610272610767565b60405161012f9190610f06565b61017c61028d366004610c53565b610980565b60408051808201909152601081526f474c4155582047524f55502044454d4f60801b60208201526101c0565b61017c6102cc366004610f6a565b6109a5565b60006001600160e01b03198216637965db0b60e01b148061030257506301ffc9a760e01b6001600160e01b03198316145b92915050565b600082815260208190526040902060010154610323816109e8565b61032d83836109f2565b50505050565b6001600160a01b038116331461035c5760405163334bd91960e11b815260040160405180910390fd5b6103668282610a84565b505050565b610373610bab565b6000828152600260205260409081902081516080810190925280548290829061039b90610f85565b80601f01602080910402602001604051908101604052809291908181526020018280546103c790610f85565b80156104145780601f106103e957610100808354040283529160200191610414565b820191906000526020600020905b8154815290600101906020018083116103f757829003601f168201915b5050505050815260200160018201805461042d90610f85565b80601f016020809104026020016040519081016040528092919081815260200182805461045990610f85565b80156104a65780601f1061047b576101008083540402835291602001916104a6565b820191906000526020600020905b81548152906001019060200180831161048957829003601f168201915b5050509183525050600282015467ffffffffffffffff81166020830152604090910190600160401b900460ff1660048111156104e4576104e4610cd8565b60048111156104f5576104f5610cd8565b90525092915050565b610506610aef565b6105106000610b1c565b565b60405180608001604052808581526020018481526020018367ffffffffffffffff16815260200182600481111561054b5761054b610cd8565b905260035460009081526002602052604090208151819061056c9082611009565b50602082015160018201906105819082611009565b50604082015160028201805467ffffffffffffffff90921667ffffffffffffffff1983168117825560608501519268ffffffffffffffffff191617600160401b8360048111156105d3576105d3610cd8565b02179055505060038054915060006105ea836110c9565b919050555050505050565b6000918252602082815260408084206001600160a01b0393909316845291905290205460ff1690565b60026020526000908152604090208054819061063990610f85565b80601f016020809104026020016040519081016040528092919081815260200182805461066590610f85565b80156106b25780601f10610687576101008083540402835291602001916106b2565b820191906000526020600020905b81548152906001019060200180831161069557829003601f168201915b5050505050908060010180546106c790610f85565b80601f01602080910402602001604051908101604052809291908181526020018280546106f390610f85565b80156107405780601f1061071557610100808354040283529160200191610740565b820191906000526020600020905b81548152906001019060200180831161072357829003601f168201915b5050506002909301549192505067ffffffffffffffff81169060ff600160401b9091041684565b6060600060035467ffffffffffffffff81111561078657610786610d82565b6040519080825280602002602001820160405280156107bf57816020015b6107ac610bab565b8152602001906001900390816107a45790505b50905060005b60035481101561097a57600081815260026020526040908190208151608081019092528054829082906107f790610f85565b80601f016020809104026020016040519081016040528092919081815260200182805461082390610f85565b80156108705780601f1061084557610100808354040283529160200191610870565b820191906000526020600020905b81548152906001019060200180831161085357829003601f168201915b5050505050815260200160018201805461088990610f85565b80601f01602080910402602001604051908101604052809291908181526020018280546108b590610f85565b80156109025780601f106108d757610100808354040283529160200191610902565b820191906000526020600020905b8154815290600101906020018083116108e557829003601f168201915b5050509183525050600282015467ffffffffffffffff81166020830152604090910190600160401b900460ff16600481111561094057610940610cd8565b600481111561095157610951610cd8565b81525050828281518110610967576109676110f0565b60209081029190910101526001016107c5565b50919050565b60008281526020819052604090206001015461099b816109e8565b61032d8383610a84565b6109ad610aef565b6001600160a01b0381166109dc57604051631e4fbdf760e01b8152600060048201526024015b60405180910390fd5b6109e581610b1c565b50565b6109e58133610b6e565b60006109fe83836105f5565b610a7c576000838152602081815260408083206001600160a01b03861684529091529020805460ff19166001179055610a343390565b6001600160a01b0316826001600160a01b0316847f2f8788117e7eff1d82e926ec794901d17c78024a50270940304540a733656f0d60405160405180910390a4506001610302565b506000610302565b6000610a9083836105f5565b15610a7c576000838152602081815260408083206001600160a01b0386168085529252808320805460ff1916905551339286917ff6391f5c32d9c69d2a47ea670b442974b53935d1edc7fd64eb21e047a839171b9190a4506001610302565b6001546001600160a01b031633146105105760405163118cdaa760e01b81523360048201526024016109d3565b600180546001600160a01b038381166001600160a01b0319831681179093556040519116919082907f8be0079c531659141344cd1fd0a4f28419497f9722a3daafe3b4186f6b6457e090600090a35050565b610b7882826105f5565b610ba75760405163e2517d3f60e01b81526001600160a01b0382166004820152602481018390526044016109d3565b5050565b60405180608001604052806060815260200160608152602001600067ffffffffffffffff16815260200160006004811115610be857610be8610cd8565b905290565b600060208284031215610bff57600080fd5b81356001600160e01b031981168114610c1757600080fd5b9392505050565b600060208284031215610c3057600080fd5b5035919050565b80356001600160a01b0381168114610c4e57600080fd5b919050565b60008060408385031215610c6657600080fd5b82359150610c7660208401610c37565b90509250929050565b6000815180845260005b81811015610ca557602081850181015186830182015201610c89565b506000602082860101526020601f19601f83011685010191505092915050565b602081526000610c176020830184610c7f565b634e487b7160e01b600052602160045260246000fd5b60058110610d0c57634e487b7160e01b600052602160045260246000fd5b9052565b6000815160808452610d256080850182610c7f565b905060208301518482036020860152610d3e8282610c7f565b91505067ffffffffffffffff60408401511660408501526060830151610d676060860182610cee565b509392505050565b602081526000610c176020830184610d10565b634e487b7160e01b600052604160045260246000fd5b600082601f830112610da957600080fd5b813567ffffffffffffffff80821115610dc457610dc4610d82565b604051601f8301601f19908116603f01168101908282118183101715610dec57610dec610d82565b81604052838152866020858801011115610e0557600080fd5b836020870160208301376000602085830101528094505050505092915050565b60008060008060808587031215610e3b57600080fd5b843567ffffffffffffffff80821115610e5357600080fd5b610e5f88838901610d98565b95506020870135915080821115610e7557600080fd5b610e8188838901610d98565b9450604087013591508082168214610e9857600080fd5b509150606085013560058110610ead57600080fd5b939692955090935050565b608081526000610ecb6080830187610c7f565b8281036020840152610edd8187610c7f565b91505067ffffffffffffffff84166040830152610efd6060830184610cee565b95945050505050565b600060208083016020845280855180835260408601915060408160051b87010192506020870160005b82811015610f5d57603f19888603018452610f4b858351610d10565b94509285019290850190600101610f2f565b5092979650505050505050565b600060208284031215610f7c57600080fd5b610c1782610c37565b600181811c90821680610f9957607f821691505b60208210810361097a57634e487b7160e01b600052602260045260246000fd5b601f821115610366576000816000526020600020601f850160051c81016020861015610fe25750805b601f850160051c820191505b8181101561100157828155600101610fee565b505050505050565b815167ffffffffffffffff81111561102357611023610d82565b611037816110318454610f85565b84610fb9565b602080601f83116001811461106c57600084156110545750858301515b600019600386901b1c1916600185901b178555611001565b600085815260208120601f198616915b8281101561109b5788860151825594840194600190910190840161107c565b50858210156110b95787850151600019600388901b60f8161c191681555b5050505050600190811b01905550565b6000600182016110e957634e487b7160e01b600052601160045260246000fd5b5060010190565b634e487b7160e01b600052603260045260246000fdfea264697066735822122066ba1ff01c8665b1bdcbae55f5ad2d79c1a812e2344a456f64e3d104ed01b14064736f6c63430008160033",
  "linkReferences": {},
  "deployedLinkReferences": {}
}